:100000000C9458000C9480000C9480000C94800098
:100010000C9480000C9480000C9480000C94800060
:100020000C9480000C9480000C9480000C94800050
:100030000C9480000C9480000C9480000C94800040
:100040000C9478040C9480000C9480000C94800034
:100050000C9480000C9480000C9480000C94800020
:100060000C94E0040C94800000000000250028009F
:100070002B00040404040404040402020202020229
:10008000030303030303010204081020408001025C
:1000900004081020010204081020000000080002DB
:1000A00001000003040700000000000000006B04D2
:1000B00011241FBECFEFD8E0DEBFCDBF11E0A0E01E
:1000C000B1E0E6EEFFE002C005900D92AC35B1075D
:1000D000D9F722E0ACE5B1E001C01D92A531B2072D
:1000E000E1F710E0C8E5D0E004C02197FE010E94CE
:1000F000C606C735D107C9F70E94D3040C94F1078F
:100100000C94000008958330B1F060F08730E9F07E
:10011000883009F1843021F5E0E8F0E080818F7DBE
:1001200080830895813069F0823021F484B58F7D19
:1001300084BD08950895E0E8F0E080818F778083A2
:10014000089584B58F7784BD0895E0EBF0E0808159
:100150008F7780830895E0EBF0E080818F7D80834E
:1001600008951F93CF93DF93282F30E0F901E656CF
:10017000FF4F8491F901EA57FF4F1491F901EE58AE
:10018000FF4FC491CC23A9F0D62F811116C0EC2FBC
:10019000F0E0EE0FFF1FE859FF4FA591B4918FB724
:1001A000F894D1110DC09C91E12FE095E923EC93D7
:1001B0008FBFDF91CF911F9108950E948300E7CFF9
:1001C000EC91E12BEC93F4CF789484B5826084BDFC
:1001D00084B5816084BD85B5826085BD85B581604B
:1001E00085BDEEE6F0E0808181608083E1E8F0E0AB
:1001F0001082808182608083808181608083E0E8DA
:10020000F0E0808181608083E1EBF0E080818460B8
:100210008083E0EBF0E0808181608083EAE7F0E0BA
:10022000808184608083808182608083808181601E
:1002300080838081806880831092C10008953FB7D9
:10024000F89480910D0290910E02A0910F02B0914E
:10025000100226B5A89B05C02F3F19F00196A11DDD
:10026000B11D3FBFBA2FA92F982F8827BC01CD0100
:10027000620F711D811D911D660F771F881F991FC9
:10028000660F771F881F991F08958F929F92AF92D4
:10029000BF92CF92DF92EF92FF926B017C010E949E
:1002A0001F014B015C011BC021E0C21AD108E1080B
:1002B000F10888EE880E83E0981EA11CB11CC114C1
:1002C000D104E104F10459F00E941F016819790971
:1002D0008A099B09683E73408105910528F7C1147E
:1002E000D104E104F10459F7FF90EF90DF90CF9033
:1002F000BF90AF909F908F900895089585EC809364
:10030000BC001092E2010895811104C085E8809339
:10031000BC00089585EC8093BC0008959093BB01C8
:100320008093BA0108959093BF018093BE01089510
:10033000AC012091BC01260F3327331F2132310538
:10034000F4F48091E2018430E1F490E00FC0E09198
:10035000BC01292F30E0E20FF32FF11D240F351FD0
:10036000D9012C91E656FE4F20839F5F961778F3B4
:100370008091BC01680F6093BC0180E0089581E02A
:10038000089582E00895880F8093BA000895ECEBF9
:10039000F0E080818A7B808360E082E10E94B1008E
:1003A00060E083E10E94B10008951092E20181E0D3
:1003B0008093E4011092E30161E082E10E94B100C8
:1003C00061E083E10E94B100E9EBF0E080818E7F83
:1003D000808380818D7F808388E48093B80085E46A
:1003E0008093BC000895EF92FF920F931F93CF93D9
:1003F000DF9391E090939901811107C0DF91CF9134
:100400001F910F91FF90EF900895C8EBD0E0F88016
:100410000AEB10E0F801E0800E94C7010E94D501BC
:10042000F801E082F882EACF709387016093860139
:10043000089570938501609384010895E091860189
:10044000F0918701309729F0109283011092820178
:1004500009950895CF93DF93EC01E0918401F09129
:1004600085013097E1F0909181018091800198178A
:10047000B0F090E0292F30E02617370754F4DE0162
:10048000A90FB11D4C91205A3E4FD9014C939F5F4B
:10049000F1CFCB0110928101609380010995DF912A
:1004A000CF9108950895E091810180918001E8172E
:1004B00030F4F0E0E05AFE4F808190E008958FEF35
:1004C0009FEF08959091810180918001981758F4D1
:1004D000E92FF0E0E05AFE4F208130E09F5F9093DB
:1004E0008101C90108952FEF3FEFFBCF809180017B
:1004F00090918101891B990B0895CF93DF93CB01D4
:10050000C42FD52F642F0E9498018C2F9D2FDF912F
:10051000CF910895CF93DF931F92CDB7DEB7698354
:1005200061E0CE0101960E94980181E090E00F9079
:10053000DF91CF9108951092810110928001109265
:100540008301109282010E94D5018EE192E00E9407
:100550008E018AE292E00E9493010895CF93C62F04
:100560000E949B028C2F0E94C301CF910895FC0131
:100570001382128288EE93E0A0E0B0E0848395833A
:10058000A683B7838EE491E09183808308950197D9
:1005900009F008956F3F7F4FE1F788E891E00E94EE
:1005A000B702F7CF90E080E0089564E670E080E065
:1005B00090E00E944501089560E588E891E00E947E
:1005C000AE026BE573E088E891E00E9414026EEEE3
:1005D00072E088E891E00E94190208950F931F933A
:1005E000CF93DF938C018130910531F054F0079760
:1005F00044F1D0E0C0E017C088E891E00E946202B8
:1006000039C088E891E00E947602892B99F188E848
:1006100091E00E946202F5CF88E891E00E946202B8
:1006200080930B01219688E891E00E947602892B45
:1006300009F1C430D10581F388E891E00E9462029B
:10064000F1CFD0E0C0E088E891E00E947602892BEB
:1006500069F088E891E00E946202E0915E01F09109
:100660005F01EC0FFD1F80832196EDCF10935D019C
:1006700000935C01DF91CF911F910F910895CF936B
:10068000DF93EC01DA0130E020E02A173B076CF43D
:10069000FE01E20FF31F5081FB01E20FF31F908177
:1006A000591307C02F5F3F4FF0CF81E0DF91CF910B
:1006B000089580E0FBCFCF92DF92EF92FF921F93DD
:1006C000CF93DF93E0905C01F0905D01C0915E01FB
:1006D000D0915F01A70166E471E0CE010E943F0363
:1006E000182F811107C0A70162E471E0CE010E94BA
:1006F0003F03182FA7016FE371E0CE010E943F0373
:10070000111169C081117CC0EB81E031A8F4F0E0E7
:10071000E457FC4F0C94C606AC039C039C039C035B
:100720009C039F039F039C03B503BE03C703D00331
:10073000D90309049C03E20345E050E054C08091D2
:100740000B0180933B0145E050E00F2EFAE3CF2EE2
:10075000F1E0DF2EF02D47C045E050E00F2EF2E132
:10076000CF2EF1E0DF2EF02D3EC045E050E00F2E01
:10077000F7E1CF2EF1E0DF2EF02D35C045E050E05F
:100780000F2EFCE1CF2EF1E0DF2EF02D2CC045E046
:1007900050E00F2EF1E2CF2EF1E0DF2EF02D23C03E
:1007A00045E050E00F2EF6E2CF2EF1E0DF2EF02DE7
:1007B0001AC045E050E00F2EFBE2CF2EF1E0DF2E15
:1007C000F02D11C045E050E00F2EF0E3CF2EF1E008
:1007D000DF2EF02D08C042E050E00F2EF9E0CF2EC2
:1007E000F1E0DF2EF02DB60188E891E00E947D0255
:1007F000DF91CF911F91FF90EF90DF90CF90089500
:1008000049E050E00F2EF0E0CF2EF1E0DF2EF02D8A
:10081000EACF45E050E00F2EF5E3CF2EF1E0DF2EDA
:10082000F02DE1CF009711F481E090E00E94CC061A
:1008300008950E94120408950E94190408950197D2
:1008400009F008956F3F7F4FE1F784E090E00E9448
:100850001C0490935F0180935E01F3CF85ED80933C
:10086000BC00409195015091960160919701709163
:100870009801495F5F4F6F4F7F4F689412F87695EC
:100880006795579547951694D1F78091BC0084FFE2
:100890001FC08091950190919601A0919701B09110
:1008A0009801892B8A2B8B2B81F34115510561050A
:1008B000710549F08AE28A95F1F700C0415051096B
:1008C00061097109E2CF809194010E94F3010895BA
:1008D0001092E20108956FEF7FEF81E090E00E94B7
:1008E000C7026FEF7FEF81E090E00E941F04089540
:1008F0001F920F920FB60F9211240F931F932F93F5
:100900003F934F935F936F937F938F939F93AF9397
:10091000BF930091090210910A0220910B023091BD
:100920000C0290910802B901A8014F5F5F4F6F4F11
:100930007F4F83E0890F8D3740F086E8890FB9013A
:10094000A8014E5F5F4F6F4F7F4F80930802409327
:10095000090250930A0260930B0270930C0280917B
:100960000D0290910E02A0910F02B091100201961B
:10097000A11DB11D80930D0290930E02A0930F0252
:10098000B0931002BF91AF919F918F917F916F9122
:100990005F914F913F912F911F910F910F900FBE3B
:1009A0000F901F9018950E94E4000E94DC020E94A4
:1009B000D50280E090E0892BD1F30E940000F7CFB0
:1009C0001F920F920FB60F9211242F933F934F93C4
:1009D0005F936F937F938F939F93AF93BF93EF93A7
:1009E000FF93E091B900E87FE93C08F0D5C0F0E062
:1009F000E450FB4F0C94C606C106CC05CC05CC05D3
:100A0000CC05CC05CC05CC05C505CC05CC05CC0565
:100A1000CC05CC05CC05CC05C505CC05CC05CC0555
:100A2000CC05CC05CC05CC05DD05CC05CC05CC052D
:100A3000CC05CC05CC05CC050306CC05CC05CC05F6
:100A4000CC05CC05CC05CC05DD05CC05CC05CC050D
:100A5000CC05CC05CC05CC050906CC05CC05CC05D0
:100A6000CC05CC05CC05CC050F06CC05CC05CC05BA
:100A7000CC05CC05CC05CC052106CC05CC05CC0598
:100A8000CC05CC05CC05CC054B06CC05CC05CC055E
:100A9000CC05CC05CC05CC051506CC05CC05CC0584
:100AA000CC05CC05CC05CC052F06CC05CC05CC055A
:100AB000CC05CC05CC05CC054E06CC05CC05CC052B
:100AC000CC05CC05CC05CC054E06CC05CC05CC051B
:100AD000CC05CC05CC05CC054E06CC05CC05CC050B
:100AE000CC05CC05CC05CC054E06CC05CC05CC05FB
:100AF000CC05CC05CC05CC055706CC05CC05CC05E2
:100B0000CC05CC05CC05CC058806CC05CC05CC05A0
:100B1000CC05CC05CC05CC055706CC05CC05CC05C1
:100B2000CC05CC05CC05CC058806CC05CC05CC0580
:100B3000CC05CC05CC05CC056F06CC05CC05CC0589
:100B4000CC05CC05CC05CC058C06CC05CC05CC055C
:100B5000CC05CC05CC05CC058C06CC05CC05CC054C
:100B6000CC05CC05CC05CC05A106CC05CC05CC0527
:100B7000CC05CC05CC05CC05BB06CC05CC05CC05FD
:100B8000CC05CC05CC05CC05BB0680910702809333
:100B9000BB0081E00E948401FF91EF91BF91AF9172
:100BA0009F918F917F916F915F914F913F912F9185
:100BB0000F900FBE0F901F90189590910602809194
:100BC0000502981768F08091E401811119C081E055
:100BD0008093E30184EA8093BC001092E201DCCFB1
:100BE000E091060281E08E0F80930602F0E0EB5167
:100BF000FE4F80818093BB0081E00E948401CCCFB6
:100C00000E942E04C9CF80E28093E1010E942E044D
:100C1000C3CF80E38093E1010E942E04BDCF88E31F
:100C20008093E1010E947E01B7CFE091060281E04E
:100C30008E0F80930602F0E08091BB00EB51FE4FD7
:100C400080839091060280910502981720F481E03C
:100C50000E948401A1CF80E00E9484019DCFE09199
:100C6000060281E08E0F80930602F0E08091BB00C7
:100C7000EB51FE4F80838091E401811109C081E036
:100C80008093E30184EA8093BC001092E20184CF58
:100C90000E942E0481CF0E942E047ECF83E0809399
:100CA000E2011092E00181E00E94840175CF809101
:100CB000E001803280F4E091E00181E08E0F8093CA
:100CC000E001F0E08091BB00E054FE4F808381E0C2
:100CD0000E94840161CF80E00E9484015DCF0E9468
:100CE0007E018091E001803230F4E091E001F0E09B
:100CF000E054FE4F10826091E00170E0E091BE018F
:100D0000F091BF0180EC91E009951092E00144CF91
:100D100080E00E94840140CF84E08093E201109241
:100D2000BD011092BC01E091BA01F091BB0109959F
:100D30008091BC01811105C081E08093BC011092BB
:100D40009A01E091BD0181E08E0F8093BD01F0E03A
:100D5000E656FE4F80818093BB009091BD0180914B
:100D6000BC01981720F481E00E94840115CF80E037
:100D70000E94840111CF81E00E9484011092E2015F
:100D80000BCF1092E1010E942E0406CFEE0FFF1F41
:100D90000590F491E02D09940F931F93CF93DF9367
:100DA0008230910510F482E090E0E0911302F0911E
:100DB000140230E020E0B0E0A0E0309799F4211573
:100DC000310509F44AC0281B390B24303105D8F508
:100DD0008A819B816115710589F1FB01938382836F
:100DE000FE0111C0408151810281138148175907CA
:100DF000E0F04817590799F4109761F012960C9398
:100E0000129713961C933296CF01DF91CF911F91C9
:100E10000F9108950093130210931402F4CF21153B
:100E2000310551F04217530738F0A901DB019A014F
:100E3000BD01DF01F801C1CFEF01F9CF909314029A
:100E400080931302CDCFFE01E20FF31F81939193A4
:100E50002250310939832883D7CF20911102309154
:100E60001202232B41F420910E0130910F01309397
:100E700012022093110220910C0130910D012115D5
:100E8000310541F42DB73EB7409110015091110149
:100E9000241B350BE0911102F0911202E217F307C7
:100EA000A0F42E1B3F0B2817390778F0AC014E5FDA
:100EB0005F4F2417350748F04E0F5F1F5093120203
:100EC00040931102819391939FCFF0E0E0E09CCF9B
:100ED000CF93DF930097E9F0FC01329713821282DF
:100EE000A0911302B0911402ED0130E020E01097C0
:100EF000A1F420813181820F931F20911102309142
:100F000012022817390709F061C0F0931202E0932A
:100F10001102DF91CF910895EA01CE17DF07E8F5BE
:100F20004A815B819E0141155105B1F7E901FB83BF
:100F3000EA8349915991C40FD51FEC17FD0761F45D
:100F4000808191810296840F951FE901998388839E
:100F5000828193819B838A83F0E0E0E012968D91F9
:100F60009C9113970097B9F52D913C911197CD0164
:100F70000296820F931F20911102309112022817BE
:100F8000390739F6309751F5109214021092130276
:100F9000B0931202A0931102BCCFD383C2834081CD
:100FA0005181840F951FC817D90761F44E5F5F4FB9
:100FB00088819981480F591F518340838A819B8181
:100FC000938382832115310509F0B0CFF093140289
:100FD000E09313029ECFFD01DC01C0CF1382128289
:060FE000D7CFF894FFCF0B
:100FE60008A36E6A73093302D0013C78000015022B
:100FF600800004000000000401007800040100786D
:1010060000040100780004040F000004040F00002F
:1010160004040F2BFC041F7E302A04780000000114
:10102600010B01020E3C01020600000000008A02CC
:0C1036007D02D2025202760262025302D6
:00000001FF
