:100000000C9458000C9480000C9480000C94800098
:100010000C9480000C9480000C9480000C94800060
:100020000C9480000C9480000C9480000C94800050
:100030000C9480000C9480000C9480000C94800040
:100040000C9402030C9480000C9480000C948000AB
:100050000C9480000C9480000C9480000C94800020
:100060000C944C030C948000000000002500280034
:100070002B00040404040404040402020202020229
:10008000030303030303010204081020408001025C
:1000900004081020010204081020000000080002DB
:1000A00001000003040700000000000000006B04D2
:1000B00011241FBECFEFD8E0DEBFCDBF11E0A0E01E
:1000C000B1E0E8E8FCE002C005900D92AC35B10764
:1000D000D9F722E0ACE5B1E001C01D92A531B2072D
:1000E000E1F710E0C8E5D0E004C02197FE010E94CE
:1000F0001705C735D107C9F70E9484040C9442063E
:100100000C94000090E0FC01E656FF4F2491FC01A6
:10011000EA57FF4F3491FC01EE58FF4FE491EE2374
:10012000C9F0222339F0233001F1A8F4213019F16C
:10013000223029F1F0E0EE0FFF1FE859FF4FA591A3
:10014000B4918FB7F894EC91611126C030953E239D
:100150003C938FBF08952730A9F02830C9F0243090
:1001600049F7809180008F7D03C0809180008F7758
:1001700080938000DFCF84B58F7784BDDBCF84B5DB
:100180008F7DFBCF8091B0008F778093B000D2CF6E
:100190008091B0008F7DF9CF3E2BDACF3FB7F89436
:1001A0008091FF0190910002A0910102B0910202A2
:1001B00026B5A89B05C02F3F19F00196A11DB11DC2
:1001C0003FBFBA2FA92F982F8827BC01CD01620FFE
:1001D000711D811D911D42E0660F771F881F991FB9
:1001E0004A95D1F70895E091F601F091F701309723
:1001F00029F01092F3011092F20109940895CF931F
:10020000DF93AC01E091F801F091F9013097F1F042
:100210009091F5018091F4019817C0F090E0292F9A
:1002200030E02617370754F4D901A25ABE4F240FE5
:10023000351FE90128812C939F5FF1CF1092F501C2
:100240006093F401CB01DF91CF910994DF91CF91BD
:1002500008952091A401260F3327331F2132310541
:10026000ECF42091C801FC0190E080E0243069F0BA
:1002700082E00895A091A4012191AC014C575E4FFA
:10028000A40FB52FB11D2C930196861798F380917A
:10029000A401680F6093A40180E0089581E00895AF
:1002A0001092C80181E08093CA011092C90161E0F7
:1002B00082E10E94820061E083E10E948200E9EB1A
:1002C000F0E080818E7F808380818D7F808388E4D1
:1002D0008093B80085E48093BC0008950895E09170
:1002E000F5018091F401E81730F4F0E0E25AFE4F96
:1002F000808190E008958FEF9FEF08959091F50130
:100300008091F4012FEF3FEF981748F4E92FF0E0C8
:10031000E25AFE4F208130E09F5F9093F501C901C2
:1003200008958091F4019091F501891B990B08952E
:10033000CF93DF93CB01EA01642F0E942901CE0104
:10034000DF91CF910895CF93DF931F92CDB7DEB7A2
:10035000698361E0CE0101960E94290181E090E06D
:100360000F90DF91CF91089590E080E008950F9372
:100370001F93CF93DF9320915C0130915D01E09159
:100380000F02F09110028F01A6E4B1E0CF01AD01A0
:1003900046545140421753070CF040C0EC015991AC
:1003A000CE014D91541799F3A2E4B1E0CF01AD0114
:1003B00042545140421753070CF030C0EC015991A0
:1003C000CE014D91541799F380E0AFE3B1E0AD0158
:1003D0004F535140421753071CF5E80149918E01D4
:1003E0009D914917A1F3811121C0E381E03108F00B
:1003F0005AC0F0E0E250FE4F0C9417053002530251
:1004000053025302530227022702530235023A02D3
:100410003F02440249021B0253024E0281E0D5CF43
:1004200049E050E060E071E0882349F042E050E0AC
:1004300069E071E004C045E050E065E371E083E00D
:1004400092E0DF91CF911F910F910C9498018091D0
:100450000B0180933B0145E050E06AE371E0EFCF90
:1004600045E050E062E171E0EACF45E050E067E14D
:1004700071E0E5CF45E050E06CE171E0E0CF45E0B0
:1004800050E061E271E0DBCF45E050E066E271E010
:10049000D6CF45E050E06BE271E0D1CF45E050E0CF
:1004A00060E371E0CCCF45E050E0C9CF0F931F93DC
:1004B000CF93DF938130910541F483E092E0DF91A7
:1004C000CF911F910F910C947E01EC018230910528
:1004D0005CF49091F4018091F5019817B9F183E0F3
:1004E00092E00E947E01F5CF0797B4F0D0E0C0E023
:1004F0009091F4018091F501981741F183E092E029
:10050000C430D10531F40E947E0180930B01219605
:10051000EFCF0E947E01FBCF10E000E09091F4014C
:100520008091F501981771F083E092E00E947E01BE
:10053000E0910F02F0911002E00FF11F80830F5F36
:100540001F4FECCFD0935D01C0935C01DF91CF9141
:100550001F910F910895CF93DF9385ED8093BC0099
:100560008091800190918101A0918201B0918301DD
:100570000796A11DB11D23E0B695A7959795879580
:100580002A95D1F72091BC0024FD03C01092C80128
:1005900036C040918001509181016091820170913B
:1005A0008301452B462B472B69F30097A105B10525
:1005B00041F02AE22A95F1F700C00197A109B1099B
:1005C000E1CF80917F0191E090937E018823B9F083
:1005D000C091B800D091BA008091BC008A7B809312
:1005E000BC0060E082E10E94820060E083E10E9442
:1005F00082000E945001D093BA00C093B800DF91EE
:10060000CF9108951F920F920FB60F9211242F933E
:100610003F938F939F93AF93BF938091FB019091F2
:10062000FC01A091FD01B091FE013091FA0123E09F
:10063000230F2D3758F50196A11DB11D2093FA0106
:100640008093FB019093FC01A093FD01B093FE0108
:100650008091FF0190910002A0910102B0910202ED
:100660000196A11DB11D8093FF0190930002A093FC
:100670000102B0930202BF91AF919F918F913F9180
:100680002F910F900FBE0F901F90189526E8230F03
:100690000296A11DB11DD2CF1F920F920FB60F92DD
:1006A00011242F933F934F935F936F937F938F9377
:1006B0009F93AF93BF93EF93FF938091B900887F8F
:1006C000803609F44AC0F0F5883209F4A7C018F55D
:1006D000803109F49BC0B8F4882309F4F9C088304C
:1006E00009F494C0FF91EF91BF91AF919F918F91C9
:1006F0007F916F915F914F913F912F910F900FBE1E
:100700000F901F901895883109F488C0803251F7F6
:100710008093C70114C0803409F49DC040F4803335
:10072000B9F38833F9F68093C70185ECB0C0803502
:1007300009F485C0883509F496C0883499F60E947A
:10074000AB02D0CF883909F48CC038F5883729F04E
:1007500050F4883611F0803729F683E08093C80181
:100760001092C60157C0883809F47BC0803919F04F
:10077000803809F0B7CF8091C601803208F071C08F
:10078000E091C60181E08E0F8093C6018091BB008D
:10079000F0E0EA55FE4F80833DC0803B39F0E0F445
:1007A000803A09F479C0883A09F09CCF84E08093BC
:1007B000C8011092A5011092A401E091F001F091FE
:1007C000F10109958091A40181110FC081E080930E
:1007D000A4011092840109C0803C09F4A6CF883C92
:1007E00009F4A3CF883B09F07DCFE091A50181E01A
:1007F0008E0F8093A501F0E0EC57FE4F808180932F
:10080000BB009091A5018091A40129C08091ED01C8
:100810008093BB0085EC8093BC0064CF9091EC0189
:100820008091EB01981758F5E091EC0181E08E0F73
:100830008093EC01F0E0E553FE4F8081E9CFE09139
:10084000EC0181E08E0F8093EC018091BB00F0E021
:10085000E553FE4F80839091EC018091EB01981756
:10086000C8F285E8D8CFE091EC0181E08E0F80934B
:10087000EC018091BB00F0E0E553FE4F8083809156
:10088000CA0181115CCF81E08093C90184EA809321
:10089000BC001092C80126CF85EC8093BC0010925A
:1008A000C8018091C601803230F4E091C601F0E0C9
:1008B000EA55FE4F10826091C60170E0E091EE01B2
:1008C000F091EF0186EA91E009951092C6010ACFF6
:1008D0001092C70134CFE3E0F2E01382128288EE77
:1008E00093E0A0E0B0E084839583A683B7838EE491
:1008F00091E09183808384E090E00E941D059093B5
:10090000100280930F020895789484B5826084BDAC
:1009100084B5816084BD85B5826085BD85B5816003
:1009200085BD80916E00816080936E001092810081
:10093000809181008260809381008091810081603C
:1009400080938100809180008160809380008091FD
:10095000B10084608093B1008091B0008160809389
:10096000B00080917A00846080937A0080917A0050
:10097000826080937A0080917A00816080937A000F
:1009800080917A00806880937A001092C100109262
:10099000F5011092F4011092F3011092F2010E94FD
:1009A000500183EF90E09093F1018093F0018FEF7D
:1009B00090E09093EF018093EE0180EA8093BA007B
:1009C00087EB91E09093F7018093F60186E592E042
:1009D0009093F9018093F801C0E0D0E00E94CE002E
:1009E0004B015C0184E6C82ED12CE12CF12C0E9435
:1009F000CE00681979098A099B09683E7340810510
:100A00009105A8F321E0C21AD108E108F10888EEA7
:100A1000880E83E0981EA11CB11CC114D104E1040E
:100A2000F10429F72097D1F20E940000D7CFEE0FF2
:100A3000FF1F0590F491E02D09940F931F93CF931E
:100A4000DF938230910510F482E090E0E091130290
:100A5000F091140230E020E0B0E0A0E0309799F48B
:100A60002115310509F44AC0281B390B2430310502
:100A7000D8F58A819B816115710589F1FB0193830A
:100A80008283FE0111C04081518102811381481788
:100A90005907E0F04817590799F4109761F012963A
:100AA0000C93129713961C933296CF01DF91CF913E
:100AB0001F910F9108950093130210931402F4CF25
:100AC0002115310551F04217530738F0A901DB0118
:100AD0009A01BD01DF01F801C1CFEF01F9CF909379
:100AE000140280931302CDCFFE01E20FF31F819316
:100AF00091932250310939832883D7CF2091110255
:100B000030911202232B41F420910E0130910F01FC
:100B1000309312022093110220910C0130910D01AB
:100B20002115310541F42DB73EB740911001509188
:100B30001101241B350BE0911102F0911202E21712
:100B4000F307A0F42E1B3F0B2817390778F0AC01F0
:100B50004E5F5F4F2417350748F04E0F5F1F5093CD
:100B6000120240931102819391939FCFF0E0E0E055
:100B70009CCFCF93DF930097E9F0FC01329713826B
:100B80001282A0911302B0911402ED0130E020E036
:100B90001097A1F420813181820F931F20911102BF
:100BA000309112022817390709F061C0F093120240
:100BB000E0931102DF91CF910895EA01CE17DF078C
:100BC000E8F54A815B819E0141155105B1F7E901C4
:100BD000FB83EA8349915991C40FD51FEC17FD0798
:100BE00061F4808191810296840F951FE9019983B8
:100BF0008883828193819B838A83F0E0E0E0129670
:100C00008D919C9113970097B9F52D913C91119777
:100C1000CD010296820F931F209111023091120292
:100C20002817390739F6309751F5109214021092AF
:100C30001302B0931202A0931102BCCFD383C283DC
:100C400040815181840F951FC817D90761F44E5F09
:100C50005F4F88819981480F591F518340838A8152
:100C60009B81938382832115310509F0B0CFF093E6
:100C70001402E09313029ECFFD01DC01C0CF13826A
:080C80001282D7CFF894FFCFD8
:100C880008A36E6A73093302D0013C78000015028C
:100C980080000400000000040100780004010078CE
:100CA80000040100780004040F000004040F000091
:100CB80004040F2BFC041F7E302A04780000000176
:100CC800010B01020E3C0102060000000000A30116
:0C0CD8009801B4016E0191017E016F01D2
:00000001FF
